{
  "contractName": "TestContract",
  "abi": [
    {
      "inputs": [],
      "stateMutability": "nonpayable",
      "type": "constructor"
    },
    {
      "anonymous": false,
      "inputs": [
        {
          "indexed": false,
          "internalType": "address",
          "name": "owner",
          "type": "address"
        },
        {
          "indexed": false,
          "internalType": "uint256",
          "name": "badgeId",
          "type": "uint256"
        },
        {
          "indexed": false,
          "internalType": "enum TestContract.State",
          "name": "status",
          "type": "uint8"
        },
        {
          "indexed": false,
          "internalType": "uint256",
          "name": "price",
          "type": "uint256"
        }
      ],
      "name": "BadgeClaimed",
      "type": "event"
    },
    {
      "anonymous": false,
      "inputs": [
        {
          "indexed": false,
          "internalType": "address",
          "name": "purchaser",
          "type": "address"
        },
        {
          "indexed": false,
          "internalType": "uint256",
          "name": "price",
          "type": "uint256"
        }
      ],
      "name": "ItemPurchase",
      "type": "event"
    },
    {
      "anonymous": false,
      "inputs": [
        {
          "indexed": true,
          "internalType": "address",
          "name": "previousOwner",
          "type": "address"
        },
        {
          "indexed": true,
          "internalType": "address",
          "name": "newOwner",
          "type": "address"
        }
      ],
      "name": "OwnershipTransferred",
      "type": "event"
    },
    {
      "anonymous": false,
      "inputs": [
        {
          "indexed": false,
          "internalType": "address",
          "name": "recipient",
          "type": "address"
        },
        {
          "indexed": false,
          "internalType": "uint256",
          "name": "giftAmount",
          "type": "uint256"
        }
      ],
      "name": "ZoodleGifted",
      "type": "event"
    },
    {
      "inputs": [],
      "name": "owner",
      "outputs": [
        {
          "internalType": "address",
          "name": "",
          "type": "address"
        }
      ],
      "stateMutability": "view",
      "type": "function",
      "constant": true
    },
    {
      "inputs": [],
      "name": "renounceOwnership",
      "outputs": [],
      "stateMutability": "nonpayable",
      "type": "function"
    },
    {
      "inputs": [
        {
          "internalType": "address",
          "name": "newOwner",
          "type": "address"
        }
      ],
      "name": "transferOwnership",
      "outputs": [],
      "stateMutability": "nonpayable",
      "type": "function"
    },
    {
      "inputs": [
        {
          "internalType": "address",
          "name": "recipient",
          "type": "address"
        },
        {
          "internalType": "uint256",
          "name": "giftAmount",
          "type": "uint256"
        }
      ],
      "name": "giftZoodle",
      "outputs": [],
      "stateMutability": "nonpayable",
      "type": "function"
    },
    {
      "inputs": [],
      "name": "getZoodle",
      "outputs": [
        {
          "internalType": "uint256",
          "name": "",
          "type": "uint256"
        }
      ],
      "stateMutability": "view",
      "type": "function",
      "constant": true
    },
    {
      "inputs": [
        {
          "internalType": "uint256",
          "name": "id",
          "type": "uint256"
        }
      ],
      "name": "getBadge",
      "outputs": [
        {
          "components": [
            {
              "internalType": "uint256",
              "name": "id",
              "type": "uint256"
            },
            {
              "internalType": "uint256",
              "name": "price",
              "type": "uint256"
            },
            {
              "internalType": "enum TestContract.State",
              "name": "status",
              "type": "uint8"
            },
            {
              "internalType": "address",
              "name": "badgeOwner",
              "type": "address"
            }
          ],
          "internalType": "struct TestContract.Badge",
          "name": "",
          "type": "tuple"
        }
      ],
      "stateMutability": "view",
      "type": "function",
      "constant": true
    },
    {
      "inputs": [],
      "name": "getUpgrades",
      "outputs": [
        {
          "internalType": "uint256",
          "name": "",
          "type": "uint256"
        }
      ],
      "stateMutability": "view",
      "type": "function",
      "constant": true
    },
    {
      "inputs": [
        {
          "internalType": "uint256",
          "name": "zoodleAccrued",
          "type": "uint256"
        },
        {
          "internalType": "uint256",
          "name": "upgradesAccrued",
          "type": "uint256"
        }
      ],
      "name": "saveProfile",
      "outputs": [],
      "stateMutability": "nonpayable",
      "type": "function"
    },
    {
      "inputs": [],
      "name": "purchaseItem1",
      "outputs": [],
      "stateMutability": "nonpayable",
      "type": "function"
    },
    {
      "inputs": [],
      "name": "purchaseItem2",
      "outputs": [],
      "stateMutability": "nonpayable",
      "type": "function"
    },
    {
      "inputs": [],
      "name": "purchaseItem3",
      "outputs": [],
      "stateMutability": "nonpayable",
      "type": "function"
    },
    {
      "inputs": [],
      "name": "purchaseItem4",
      "outputs": [],
      "stateMutability": "nonpayable",
      "type": "function"
    },
    {
      "inputs": [
        {
          "internalType": "uint256",
          "name": "id",
          "type": "uint256"
        }
      ],
      "name": "claimBadge",
      "outputs": [],
      "stateMutability": "nonpayable",
      "type": "function"
    }
  ],
  "bytecode": "0x60806040523480156200001157600080fd5b5062000032620000266200035a60201b60201c565b6200036260201b60201c565b60036040518060800160405280600081526020016064815260200160018081111562000063576200006262000426565b5b8152602001600073ffffffffffffffffffffffffffffffffffffffff168152509080600181540180825580915050600190039060005260206000209060030201600090919091909150600082015181600001556020820151816001015560408201518160020160006101000a81548160ff02191690836001811115620000ee57620000ed62000426565b5b021790555060608201518160020160016101000a81548173ffffffffffffffffffffffffffffffffffffffff021916908373ffffffffffffffffffffffffffffffffffffffff16021790555050506003604051806080016040528060018152602001620186a081526020016001808111156200016f576200016e62000426565b5b8152602001600073ffffffffffffffffffffffffffffffffffffffff168152509080600181540180825580915050600190039060005260206000209060030201600090919091909150600082015181600001556020820151816001015560408201518160020160006101000a81548160ff02191690836001811115620001fa57620001f962000426565b5b021790555060608201518160020160016101000a81548173ffffffffffffffffffffffffffffffffffffffff021916908373ffffffffffffffffffffffffffffffffffffffff16021790555050506003604051806080016040528060028152602001620f424081526020016001808111156200027b576200027a62000426565b5b8152602001600073ffffffffffffffffffffffffffffffffffffffff168152509080600181540180825580915050600190039060005260206000209060030201600090919091909150600082015181600001556020820151816001015560408201518160020160006101000a81548160ff0219169083600181111562000306576200030562000426565b5b021790555060608201518160020160016101000a81548173ffffffffffffffffffffffffffffffffffffffff021916908373ffffffffffffffffffffffffffffffffffffffff160217905550505062000455565b600033905090565b60008060009054906101000a900473ffffffffffffffffffffffffffffffffffffffff169050816000806101000a81548173ffffffffffffffffffffffffffffffffffffffff021916908373ffffffffffffffffffffffffffffffffffffffff1602179055508173ffffffffffffffffffffffffffffffffffffffff168173ffffffffffffffffffffffffffffffffffffffff167f8be0079c531659141344cd1fd0a4f28419497f9722a3daafe3b4186f6b6457e060405160405180910390a35050565b7f4e487b7100000000000000000000000000000000000000000000000000000000600052602160045260246000fd5b6119fe80620004656000396000f3fe608060405234801561001057600080fd5b50600436106100cf5760003560e01c80638da5cb5b1161008c578063bfad85e511610066578063bfad85e5146101a0578063c8d7cafd146101be578063f055cf76146101c8578063f2fde38b146101e4576100cf565b80638da5cb5b1461015c5780639f43203a1461017a578063b4fe534014610184576100cf565b806323415135146100d45780634e7d1856146100f0578063695bd00c146100fa57806370fc63ae14610118578063715018a6146101225780638d8386221461012c575b600080fd5b6100ee60048036038101906100e991906110de565b610200565b005b6100f86104d1565b005b610102610641565b60405161010f919061111a565b60405180910390f35b610120610688565b005b61012a6107f5565b005b610146600480360381019061014191906110de565b61087d565b6040516101539190611251565b60405180910390f35b61016461095e565b604051610171919061127b565b60405180910390f35b610182610987565b005b61019e600480360381019061019991906112c2565b610afb565b005b6101a8610bf8565b6040516101b5919061111a565b60405180910390f35b6101c6610c8f565b005b6101e260048036038101906101dd9190611302565b610e03565b005b6101fe60048036038101906101f99190611342565b610e8f565b005b8060018081111561021457610213611144565b5b600382815481106102285761022761136f565b5b906000526020600020906003020160020160009054906101000a900460ff16600181111561025957610258611144565b5b1480156102d75750600073ffffffffffffffffffffffffffffffffffffffff166003828154811061028d5761028c61136f565b5b906000526020600020906003020160020160019054906101000a900473ffffffffffffffffffffffffffffffffffffffff1673ffffffffffffffffffffffffffffffffffffffff16145b610316576040517f08c379a000000000000000000000000000000000000000000000000000000000815260040161030d906113fb565b60405180910390fd5b6003828154811061032a5761032961136f565b5b906000526020600020906003020160010154600260003373ffffffffffffffffffffffffffffffffffffffff1673ffffffffffffffffffffffffffffffffffffffff16815260200190815260200160002054101561038757600080fd5b60006003838154811061039d5761039c61136f565b5b906000526020600020906003020160020160006101000a81548160ff021916908360018111156103d0576103cf611144565b5b021790555033600383815481106103ea576103e961136f565b5b906000526020600020906003020160020160016101000a81548173ffffffffffffffffffffffffffffffffffffffff021916908373ffffffffffffffffffffffffffffffffffffffff1602179055507f2619fffd045511b5e0f7ed9cf3627d7fa11dc55759a5e3c60d416888c2f43bff3383600385815481106104705761046f61136f565b5b906000526020600020906003020160020160009054906101000a900460ff16600386815481106104a3576104a261136f565b5b9060005260206000209060030201600101546040516104c5949392919061142a565b60405180910390a15050565b6103e8600260003373ffffffffffffffffffffffffffffffffffffffff1673ffffffffffffffffffffffffffffffffffffffff168152602001908152602001600020541015610555576040517f08c379a000000000000000000000000000000000000000000000000000000000815260040161054c906114bb565b60405180910390fd5b6103e8600260003373ffffffffffffffffffffffffffffffffffffffff1673ffffffffffffffffffffffffffffffffffffffff16815260200190815260200160002060008282546105a6919061150a565b925050819055506032600160003373ffffffffffffffffffffffffffffffffffffffff1673ffffffffffffffffffffffffffffffffffffffff16815260200190815260200160002060008282546105fd919061153e565b925050819055507f9ae886e6a396303cbbd33e367618060d268b3bcedbca31515ee88237cbc5d7eb336103e86040516106379291906115d9565b60405180910390a1565b6000600160003373ffffffffffffffffffffffffffffffffffffffff1673ffffffffffffffffffffffffffffffffffffffff16815260200190815260200160002054905090565b6064600260003373ffffffffffffffffffffffffffffffffffffffff1673ffffffffffffffffffffffffffffffffffffffff16815260200190815260200160002054101561070b576040517f08c379a00000000000000000000000000000000000000000000000000000000081526004016107029061164e565b60405180910390fd5b6064600260003373ffffffffffffffffffffffffffffffffffffffff1673ffffffffffffffffffffffffffffffffffffffff168152602001908152602001600020600082825461075b919061150a565b925050819055506005600160003373ffffffffffffffffffffffffffffffffffffffff1673ffffffffffffffffffffffffffffffffffffffff16815260200190815260200160002060008282546107b2919061153e565b925050819055507f9ae886e6a396303cbbd33e367618060d268b3bcedbca31515ee88237cbc5d7eb3360646040516107eb9291906116a9565b60405180910390a1565b6107fd610f87565b73ffffffffffffffffffffffffffffffffffffffff1661081b61095e565b73ffffffffffffffffffffffffffffffffffffffff1614610871576040517f08c379a00000000000000000000000000000000000000000000000000000000081526004016108689061171e565b60405180910390fd5b61087b6000610f8f565b565b610885611053565b600382815481106108995761089861136f565b5b906000526020600020906003020160405180608001604052908160008201548152602001600182015481526020016002820160009054906101000a900460ff1660018111156108eb576108ea611144565b5b60018111156108fd576108fc611144565b5b81526020016002820160019054906101000a900473ffffffffffffffffffffffffffffffffffffffff1673ffffffffffffffffffffffffffffffffffffffff1673ffffffffffffffffffffffffffffffffffffffff16815250509050919050565b60008060009054906101000a900473ffffffffffffffffffffffffffffffffffffffff16905090565b620f4240600260003373ffffffffffffffffffffffffffffffffffffffff1673ffffffffffffffffffffffffffffffffffffffff168152602001908152602001600020541015610a0c576040517f08c379a0000000000000000000000000000000000000000000000000000000008152600401610a039061178a565b60405180910390fd5b620f4240600260003373ffffffffffffffffffffffffffffffffffffffff1673ffffffffffffffffffffffffffffffffffffffff1681526020019081526020016000206000828254610a5e919061150a565b92505081905550611388600160003373ffffffffffffffffffffffffffffffffffffffff1673ffffffffffffffffffffffffffffffffffffffff1681526020019081526020016000206000828254610ab6919061153e565b925050819055507f9ae886e6a396303cbbd33e367618060d268b3bcedbca31515ee88237cbc5d7eb33620f4240604051610af19291906117e5565b60405180910390a1565b610b03610f87565b73ffffffffffffffffffffffffffffffffffffffff16610b2161095e565b73ffffffffffffffffffffffffffffffffffffffff1614610b77576040517f08c379a0000000000000000000000000000000000000000000000000000000008152600401610b6e9061171e565b60405180910390fd5b80600260008473ffffffffffffffffffffffffffffffffffffffff1673ffffffffffffffffffffffffffffffffffffffff168152602001908152602001600020819055507fd1fbe3b57f68f82076d87d0e76dde1745fae8ac6e7a3ff7e2ae52264d224f7cf8282604051610bec92919061180e565b60405180910390a15050565b600080600260003373ffffffffffffffffffffffffffffffffffffffff1673ffffffffffffffffffffffffffffffffffffffff168152602001908152602001600020541015610c4a57610c49611837565b5b600260003373ffffffffffffffffffffffffffffffffffffffff1673ffffffffffffffffffffffffffffffffffffffff16815260200190815260200160002054905090565b620186a0600260003373ffffffffffffffffffffffffffffffffffffffff1673ffffffffffffffffffffffffffffffffffffffff168152602001908152602001600020541015610d14576040517f08c379a0000000000000000000000000000000000000000000000000000000008152600401610d0b906118b2565b60405180910390fd5b620186a0600260003373ffffffffffffffffffffffffffffffffffffffff1673ffffffffffffffffffffffffffffffffffffffff1681526020019081526020016000206000828254610d66919061150a565b925050819055506101f4600160003373ffffffffffffffffffffffffffffffffffffffff1673ffffffffffffffffffffffffffffffffffffffff1681526020019081526020016000206000828254610dbe919061153e565b925050819055507f9ae886e6a396303cbbd33e367618060d268b3bcedbca31515ee88237cbc5d7eb33620186a0604051610df992919061190d565b60405180910390a1565b81600260003373ffffffffffffffffffffffffffffffffffffffff1673ffffffffffffffffffffffffffffffffffffffff1681526020019081526020016000208190555080600160003373ffffffffffffffffffffffffffffffffffffffff1673ffffffffffffffffffffffffffffffffffffffff168152602001908152602001600020819055505050565b610e97610f87565b73ffffffffffffffffffffffffffffffffffffffff16610eb561095e565b73ffffffffffffffffffffffffffffffffffffffff1614610f0b576040517f08c379a0000000000000000000000000000000000000000000000000000000008152600401610f029061171e565b60405180910390fd5b600073ffffffffffffffffffffffffffffffffffffffff168173ffffffffffffffffffffffffffffffffffffffff161415610f7b576040517f08c379a0000000000000000000000000000000000000000000000000000000008152600401610f72906119a8565b60405180910390fd5b610f8481610f8f565b50565b600033905090565b60008060009054906101000a900473ffffffffffffffffffffffffffffffffffffffff169050816000806101000a81548173ffffffffffffffffffffffffffffffffffffffff021916908373ffffffffffffffffffffffffffffffffffffffff1602179055508173ffffffffffffffffffffffffffffffffffffffff168173ffffffffffffffffffffffffffffffffffffffff167f8be0079c531659141344cd1fd0a4f28419497f9722a3daafe3b4186f6b6457e060405160405180910390a35050565b60405180608001604052806000815260200160008152602001600060018111156110805761107f611144565b5b8152602001600073ffffffffffffffffffffffffffffffffffffffff1681525090565b600080fd5b6000819050919050565b6110bb816110a8565b81146110c657600080fd5b50565b6000813590506110d8816110b2565b92915050565b6000602082840312156110f4576110f36110a3565b5b6000611102848285016110c9565b91505092915050565b611114816110a8565b82525050565b600060208201905061112f600083018461110b565b92915050565b61113e816110a8565b82525050565b7f4e487b7100000000000000000000000000000000000000000000000000000000600052602160045260246000fd5b6002811061118457611183611144565b5b50565b600081905061119582611173565b919050565b60006111a582611187565b9050919050565b6111b58161119a565b82525050565b600073ffffffffffffffffffffffffffffffffffffffff82169050919050565b60006111e6826111bb565b9050919050565b6111f6816111db565b82525050565b6080820160008201516112126000850182611135565b5060208201516112256020850182611135565b50604082015161123860408501826111ac565b50606082015161124b60608501826111ed565b50505050565b600060808201905061126660008301846111fc565b92915050565b611275816111db565b82525050565b6000602082019050611290600083018461126c565b92915050565b61129f816111db565b81146112aa57600080fd5b50565b6000813590506112bc81611296565b92915050565b600080604083850312156112d9576112d86110a3565b5b60006112e7858286016112ad565b92505060206112f8858286016110c9565b9150509250929050565b60008060408385031215611319576113186110a3565b5b6000611327858286016110c9565b9250506020611338858286016110c9565b9150509250929050565b600060208284031215611358576113576110a3565b5b6000611366848285016112ad565b91505092915050565b7f4e487b7100000000000000000000000000000000000000000000000000000000600052603260045260246000fd5b600082825260208201905092915050565b7f4261646765206973206f776e6564000000000000000000000000000000000000600082015250565b60006113e5600e8361139e565b91506113f0826113af565b602082019050919050565b60006020820190508181036000830152611414816113d8565b9050919050565b6114248161119a565b82525050565b600060808201905061143f600083018761126c565b61144c602083018661110b565b611459604083018561141b565b611466606083018461110b565b95945050505050565b7f42616c616e6365206973206c657373207468616e203130303000000000000000600082015250565b60006114a560198361139e565b91506114b08261146f565b602082019050919050565b600060208201905081810360008301526114d481611498565b9050919050565b7f4e487b7100000000000000000000000000000000000000000000000000000000600052601160045260246000fd5b6000611515826110a8565b9150611520836110a8565b925082821015611533576115326114db565b5b828203905092915050565b6000611549826110a8565b9150611554836110a8565b9250827fffffffffffffffffffffffffffffffffffffffffffffffffffffffffffffffff03821115611589576115886114db565b5b828201905092915050565b6000819050919050565b6000819050919050565b60006115c36115be6115b984611594565b61159e565b6110a8565b9050919050565b6115d3816115a8565b82525050565b60006040820190506115ee600083018561126c565b6115fb60208301846115ca565b9392505050565b7f42616c616e6365206973206c657373207468616e203130300000000000000000600082015250565b600061163860188361139e565b915061164382611602565b602082019050919050565b600060208201905081810360008301526116678161162b565b9050919050565b6000819050919050565b600061169361168e6116898461166e565b61159e565b6110a8565b9050919050565b6116a381611678565b82525050565b60006040820190506116be600083018561126c565b6116cb602083018461169a565b9392505050565b7f4f776e61626c653a2063616c6c6572206973206e6f7420746865206f776e6572600082015250565b600061170860208361139e565b9150611713826116d2565b602082019050919050565b60006020820190508181036000830152611737816116fb565b9050919050565b7f42616c616e6365206973206c657373207468616e203130303030303000000000600082015250565b6000611774601c8361139e565b915061177f8261173e565b602082019050919050565b600060208201905081810360008301526117a381611767565b9050919050565b6000819050919050565b60006117cf6117ca6117c5846117aa565b61159e565b6110a8565b9050919050565b6117df816117b4565b82525050565b60006040820190506117fa600083018561126c565b61180760208301846117d6565b9392505050565b6000604082019050611823600083018561126c565b611830602083018461110b565b9392505050565b7f4e487b7100000000000000000000000000000000000000000000000000000000600052600160045260246000fd5b7f42616c616e6365206973206c657373207468616e203130303030300000000000600082015250565b600061189c601b8361139e565b91506118a782611866565b602082019050919050565b600060208201905081810360008301526118cb8161188f565b9050919050565b6000819050919050565b60006118f76118f26118ed846118d2565b61159e565b6110a8565b9050919050565b611907816118dc565b82525050565b6000604082019050611922600083018561126c565b61192f60208301846118fe565b9392505050565b7f4f776e61626c653a206e6577206f776e657220697320746865207a65726f206160008201527f6464726573730000000000000000000000000000000000000000000000000000602082015250565b600061199260268361139e565b915061199d82611936565b604082019050919050565b600060208201905081810360008301526119c181611985565b905091905056fea264697066735822122012a0c3dd9d0fd1d2b017fc73dd286399dbf82b1833ce775fc58f1c998c72611c64736f6c634300080a0033",
  "immutableReferences": {},
  "source": "// SPDX-License-Identifier: MIT\npragma solidity >=0.4.22 <0.9.0;\n\nimport \"@openzeppelin/contracts/access/Ownable.sol\";\n\n/// @title A contract for managing user profiles for the blockchain based game Zoodle Clicker\n/// @author Alexander R. D'Alessandro\n/// @dev All function calls are currently implemented without side effects\n/// @custom:experimental This is an experimental contract.\ncontract TestContract is Ownable{\n  \n  \n  mapping(address => uint) private upgradeTotal;\n  mapping(address => uint) private zoodleBalances;\n\n  enum State{Owned, Unowned}\n\n  struct Badge {\n    uint id;\n    uint price;\n    State status;\n    address badgeOwner;\n  }\n\n  // mapping(uint => Badge) private badgeList;\n  Badge[] private badges;\n\n  constructor() {\n   badges.push(Badge({\n     id:0,\n     price:100,\n     status: State.Unowned,\n    badgeOwner: address(0)\n   }));\n\n   badges.push(Badge({\n     id:1,\n     price:100000,\n     status: State.Unowned,\n    badgeOwner: address(0)\n   }));\n\n   badges.push(Badge({\n     id:2,\n     price:1000000,\n     status: State.Unowned,\n    badgeOwner: address(0)\n   }));\n  }\n\n  event ZoodleGifted(address recipient, uint256 giftAmount);\n  event ItemPurchase(address purchaser, uint256 price);\n  event BadgeClaimed(address owner, uint256 badgeId, State status, uint256 price);\n\n  modifier isUnowned(uint id){\n    require(badges[id].status == State.Unowned && badges[id].badgeOwner == address(0), \"Badge is owned\");\n    _;\n  }\n\n  /// @notice Used by the contract owner to gift an amount of zoodle to a user\n  /// @dev used onlyOwner to make sure function is only accessed by owner\n  /// @param recipient adress to recieve Zoodle\n  /// @param giftAmount amount of Zoodle to be gifted\n  function giftZoodle(address recipient, uint256 giftAmount) public onlyOwner{\n    zoodleBalances[recipient] = giftAmount;\n    emit ZoodleGifted(recipient, giftAmount);\n  }\n  \n  /// @notice Used to retrieve the zoodle balance of a user\n  /// @return the balance of a user\n  function getZoodle() public view returns(uint256){\n    assert(zoodleBalances[msg.sender] >=0);\n    return zoodleBalances[msg.sender];\n  }\n\n  /// @notice Used to retrieve badge data\n  /// @dev Can be used upon frontend load to populate badge data\n  /// @param id the id of the badge that we want to retrieve data for\n  /// @return a badge object\n\n  function getBadge(uint256 id) public view returns(Badge memory){\n    return badges[id];\n  }\n\n  /// @notice Used to retrieve the mining power of a specific user\n  /// @dev Can be used upon frontend to load mining power\n  /// @return the mining power of the user\n  function getUpgrades() public view returns(uint256){\n    return upgradeTotal[msg.sender];\n  }\n\n  /// @notice Used to save a users progress on the frontend\n  /// @param zoodleAccrued the amount of zoodle the user mined on frontend\n  /// @param upgradesAccrued the amount of mining power the user accrued on the frontend\n  function saveProfile(uint256 zoodleAccrued, uint256 upgradesAccrued) public{\n    zoodleBalances[msg.sender] = zoodleAccrued;\n    upgradeTotal[msg.sender] = upgradesAccrued;\n  }\n  \n  /// @notice Used to purchase item1 in the shop\n  /// @dev require is used to make sure the user looking to purchase item has enough zoodle accumulated\n  function purchaseItem1() public{\n    require(zoodleBalances[msg.sender] >= 100, \"Balance is less than 100\");\n    zoodleBalances[msg.sender] -= 100;\n    upgradeTotal[msg.sender] +=5;\n    emit ItemPurchase(msg.sender, 100);\n  }\n\n  /// @notice Used to purchase item2 in the shop\n  /// @dev require is used to make sure the user looking to purchase item has enough zoodle accumulated\n  function purchaseItem2() public{\n    require(zoodleBalances[msg.sender] >= 1000, \"Balance is less than 1000\");\n    zoodleBalances[msg.sender] -= 1000;\n    upgradeTotal[msg.sender] +=50;\n     emit ItemPurchase(msg.sender, 1000);\n  }\n\n  /// @notice Used to purchase item3 in the shop\n  /// @dev require is used to make sure the user looking to purchase item has enough zoodle accumulated\n  function purchaseItem3() public{\n    require(zoodleBalances[msg.sender] >= 100000, \"Balance is less than 100000\");\n    zoodleBalances[msg.sender] -= 100000;\n    upgradeTotal[msg.sender] +=500;\n     emit ItemPurchase(msg.sender, 100000);\n  }\n\n  /// @notice Used to purchase item4 in the shop\n  /// @dev require is used to make sure the user looking to purchase item has enough zoodle accumulated\n  function purchaseItem4() public{\n    require(zoodleBalances[msg.sender] >= 1000000, \"Balance is less than 1000000\");\n    zoodleBalances[msg.sender] -= 1000000;\n    upgradeTotal[msg.sender] +=5000;\n    emit ItemPurchase(msg.sender, 1000000);\n  }\n\n  /// @notice Used to claim a badge\n  /// @dev require is used to make sure the user looking to claim the badge has enough Zoodle\n  /// @param id the id of the badge that the user is looking to claim\n  function claimBadge(uint256 id) public isUnowned(id){\n    require(zoodleBalances[msg.sender] >= badges[id].price);\n    badges[id].status = State.Owned;\n    badges[id].badgeOwner = msg.sender;\n    emit BadgeClaimed(msg.sender, id, badges[id].status,badges[id].price);\n  }\n\n}\n",
  "sourcePath": "/Users/alexdalessandro/Desktop/solidity/blockchain-developer-bootcamp-final-project/contracts/TestContract.sol",
  "compiler": {
    "name": "solc",
    "version": "0.8.10+commit.fc410830.Emscripten.clang"
  },
  "schemaVersion": "3.4.3",
  "updatedAt": "2021-11-30T23:21:21.531Z",
  "networkType": "ethereum",
  "devdoc": {
    "author": "Alexander R. D'Alessandro",
    "custom:experimental": "This is an experimental contract.",
    "details": "All function calls are currently implemented without side effects",
    "kind": "dev",
    "methods": {
      "claimBadge(uint256)": {
        "details": "require is used to make sure the user looking to claim the badge has enough Zoodle",
        "params": {
          "id": "the id of the badge that the user is looking to claim"
        }
      },
      "getBadge(uint256)": {
        "details": "Can be used upon frontend load to populate badge data",
        "params": {
          "id": "the id of the badge that we want to retrieve data for"
        },
        "returns": {
          "_0": "a badge object"
        }
      },
      "getUpgrades()": {
        "details": "Can be used upon frontend to load mining power",
        "returns": {
          "_0": "the mining power of the user"
        }
      },
      "getZoodle()": {
        "returns": {
          "_0": "the balance of a user"
        }
      },
      "giftZoodle(address,uint256)": {
        "details": "used onlyOwner to make sure function is only accessed by owner",
        "params": {
          "giftAmount": "amount of Zoodle to be gifted",
          "recipient": "adress to recieve Zoodle"
        }
      },
      "owner()": {
        "details": "Returns the address of the current owner."
      },
      "purchaseItem1()": {
        "details": "require is used to make sure the user looking to purchase item has enough zoodle accumulated"
      },
      "purchaseItem2()": {
        "details": "require is used to make sure the user looking to purchase item has enough zoodle accumulated"
      },
      "purchaseItem3()": {
        "details": "require is used to make sure the user looking to purchase item has enough zoodle accumulated"
      },
      "purchaseItem4()": {
        "details": "require is used to make sure the user looking to purchase item has enough zoodle accumulated"
      },
      "renounceOwnership()": {
        "details": "Leaves the contract without owner. It will not be possible to call `onlyOwner` functions anymore. Can only be called by the current owner. NOTE: Renouncing ownership will leave the contract without an owner, thereby removing any functionality that is only available to the owner."
      },
      "saveProfile(uint256,uint256)": {
        "params": {
          "upgradesAccrued": "the amount of mining power the user accrued on the frontend",
          "zoodleAccrued": "the amount of zoodle the user mined on frontend"
        }
      },
      "transferOwnership(address)": {
        "details": "Transfers ownership of the contract to a new account (`newOwner`). Can only be called by the current owner."
      }
    },
    "title": "A contract for managing user profiles for the blockchain based game Zoodle Clicker",
    "version": 1
  },
  "userdoc": {
    "kind": "user",
    "methods": {
      "claimBadge(uint256)": {
        "notice": "Used to claim a badge"
      },
      "getBadge(uint256)": {
        "notice": "Used to retrieve badge data"
      },
      "getUpgrades()": {
        "notice": "Used to retrieve the mining power of a specific user"
      },
      "getZoodle()": {
        "notice": "Used to retrieve the zoodle balance of a user"
      },
      "giftZoodle(address,uint256)": {
        "notice": "Used by the contract owner to gift an amount of zoodle to a user"
      },
      "purchaseItem1()": {
        "notice": "Used to purchase item1 in the shop"
      },
      "purchaseItem2()": {
        "notice": "Used to purchase item2 in the shop"
      },
      "purchaseItem3()": {
        "notice": "Used to purchase item3 in the shop"
      },
      "purchaseItem4()": {
        "notice": "Used to purchase item4 in the shop"
      },
      "saveProfile(uint256,uint256)": {
        "notice": "Used to save a users progress on the frontend"
      }
    },
    "version": 1
  }
}