{
  "contractName": "TestContract",
  "abi": [
    {
      "inputs": [],
      "stateMutability": "nonpayable",
      "type": "constructor"
    },
    {
      "anonymous": false,
      "inputs": [
        {
          "indexed": true,
          "internalType": "address",
          "name": "previousOwner",
          "type": "address"
        },
        {
          "indexed": true,
          "internalType": "address",
          "name": "newOwner",
          "type": "address"
        }
      ],
      "name": "OwnershipTransferred",
      "type": "event"
    },
    {
      "inputs": [],
      "name": "owner",
      "outputs": [
        {
          "internalType": "address",
          "name": "",
          "type": "address"
        }
      ],
      "stateMutability": "view",
      "type": "function",
      "constant": true
    },
    {
      "inputs": [],
      "name": "renounceOwnership",
      "outputs": [],
      "stateMutability": "nonpayable",
      "type": "function"
    },
    {
      "inputs": [
        {
          "internalType": "address",
          "name": "newOwner",
          "type": "address"
        }
      ],
      "name": "transferOwnership",
      "outputs": [],
      "stateMutability": "nonpayable",
      "type": "function"
    },
    {
      "inputs": [
        {
          "internalType": "address",
          "name": "recipient",
          "type": "address"
        },
        {
          "internalType": "uint256",
          "name": "giftAmount",
          "type": "uint256"
        }
      ],
      "name": "giftZoodle",
      "outputs": [],
      "stateMutability": "nonpayable",
      "type": "function"
    },
    {
      "inputs": [],
      "name": "getZoodle",
      "outputs": [
        {
          "internalType": "uint256",
          "name": "",
          "type": "uint256"
        }
      ],
      "stateMutability": "view",
      "type": "function",
      "constant": true
    },
    {
      "inputs": [
        {
          "internalType": "uint256",
          "name": "id",
          "type": "uint256"
        }
      ],
      "name": "getBadge",
      "outputs": [
        {
          "components": [
            {
              "internalType": "uint256",
              "name": "id",
              "type": "uint256"
            },
            {
              "internalType": "uint256",
              "name": "price",
              "type": "uint256"
            },
            {
              "internalType": "enum TestContract.State",
              "name": "status",
              "type": "uint8"
            },
            {
              "internalType": "address",
              "name": "badgeOwner",
              "type": "address"
            }
          ],
          "internalType": "struct TestContract.Badge",
          "name": "",
          "type": "tuple"
        }
      ],
      "stateMutability": "view",
      "type": "function",
      "constant": true
    },
    {
      "inputs": [],
      "name": "getUpgrades",
      "outputs": [
        {
          "internalType": "uint256",
          "name": "",
          "type": "uint256"
        }
      ],
      "stateMutability": "view",
      "type": "function",
      "constant": true
    },
    {
      "inputs": [
        {
          "internalType": "uint256",
          "name": "zoodleAccrued",
          "type": "uint256"
        },
        {
          "internalType": "uint256",
          "name": "upgradesAccrued",
          "type": "uint256"
        }
      ],
      "name": "saveProfile",
      "outputs": [],
      "stateMutability": "nonpayable",
      "type": "function"
    },
    {
      "inputs": [],
      "name": "purchaseItem1",
      "outputs": [],
      "stateMutability": "nonpayable",
      "type": "function"
    },
    {
      "inputs": [],
      "name": "purchaseItem2",
      "outputs": [],
      "stateMutability": "nonpayable",
      "type": "function"
    },
    {
      "inputs": [],
      "name": "purchaseItem3",
      "outputs": [],
      "stateMutability": "nonpayable",
      "type": "function"
    },
    {
      "inputs": [],
      "name": "purchaseItem4",
      "outputs": [],
      "stateMutability": "nonpayable",
      "type": "function"
    },
    {
      "inputs": [
        {
          "internalType": "uint256",
          "name": "id",
          "type": "uint256"
        }
      ],
      "name": "claimBadge",
      "outputs": [],
      "stateMutability": "nonpayable",
      "type": "function"
    }
  ],
  "bytecode": "0x60806040523480156200001157600080fd5b5062000032620000266200035960201b60201c565b6200036160201b60201c565b60036040518060800160405280600081526020016064815260200160018081111562000063576200006262000425565b5b8152602001600073ffffffffffffffffffffffffffffffffffffffff168152509080600181540180825580915050600190039060005260206000209060030201600090919091909150600082015181600001556020820151816001015560408201518160020160006101000a81548160ff02191690836001811115620000ee57620000ed62000425565b5b021790555060608201518160020160016101000a81548173ffffffffffffffffffffffffffffffffffffffff021916908373ffffffffffffffffffffffffffffffffffffffff1602179055505050600360405180608001604052806001815260200161271081526020016001808111156200016e576200016d62000425565b5b8152602001600073ffffffffffffffffffffffffffffffffffffffff168152509080600181540180825580915050600190039060005260206000209060030201600090919091909150600082015181600001556020820151816001015560408201518160020160006101000a81548160ff02191690836001811115620001f957620001f862000425565b5b021790555060608201518160020160016101000a81548173ffffffffffffffffffffffffffffffffffffffff021916908373ffffffffffffffffffffffffffffffffffffffff16021790555050506003604051806080016040528060028152602001620f424081526020016001808111156200027a576200027962000425565b5b8152602001600073ffffffffffffffffffffffffffffffffffffffff168152509080600181540180825580915050600190039060005260206000209060030201600090919091909150600082015181600001556020820151816001015560408201518160020160006101000a81548160ff0219169083600181111562000305576200030462000425565b5b021790555060608201518160020160016101000a81548173ffffffffffffffffffffffffffffffffffffffff021916908373ffffffffffffffffffffffffffffffffffffffff160217905550505062000454565b600033905090565b60008060009054906101000a900473ffffffffffffffffffffffffffffffffffffffff169050816000806101000a81548173ffffffffffffffffffffffffffffffffffffffff021916908373ffffffffffffffffffffffffffffffffffffffff1602179055508173ffffffffffffffffffffffffffffffffffffffff168173ffffffffffffffffffffffffffffffffffffffff167f8be0079c531659141344cd1fd0a4f28419497f9722a3daafe3b4186f6b6457e060405160405180910390a35050565b7f4e487b7100000000000000000000000000000000000000000000000000000000600052602160045260246000fd5b6115ae80620004646000396000f3fe608060405234801561001057600080fd5b50600436106100cf5760003560e01c80638da5cb5b1161008c578063bfad85e511610066578063bfad85e5146101a0578063c8d7cafd146101be578063f055cf76146101c8578063f2fde38b146101e4576100cf565b80638da5cb5b1461015c5780639f43203a1461017a578063b4fe534014610184576100cf565b806323415135146100d45780634e7d1856146100f0578063695bd00c146100fa57806370fc63ae14610118578063715018a6146101225780638d8386221461012c575b600080fd5b6100ee60048036038101906100e99190610ed4565b610200565b005b6100f861043d565b005b610102610572565b60405161010f9190610f10565b60405180910390f35b6101206105b9565b005b61012a6106ec565b005b61014660048036038101906101419190610ed4565b610774565b6040516101539190611047565b60405180910390f35b610164610855565b6040516101719190611071565b60405180910390f35b61018261087e565b005b61019e600480360381019061019991906110b8565b6109b6565b005b6101a8610a7a565b6040516101b59190610f10565b60405180910390f35b6101c6610ac1565b005b6101e260048036038101906101dd91906110f8565b610bf9565b005b6101fe60048036038101906101f99190611138565b610c85565b005b8060018081111561021457610213610f3a565b5b6003828154811061022857610227611165565b5b906000526020600020906003020160020160009054906101000a900460ff16600181111561025957610258610f3a565b5b1480156102d75750600073ffffffffffffffffffffffffffffffffffffffff166003828154811061028d5761028c611165565b5b906000526020600020906003020160020160019054906101000a900473ffffffffffffffffffffffffffffffffffffffff1673ffffffffffffffffffffffffffffffffffffffff16145b610316576040517f08c379a000000000000000000000000000000000000000000000000000000000815260040161030d906111f1565b60405180910390fd5b6003828154811061032a57610329611165565b5b906000526020600020906003020160010154600260003373ffffffffffffffffffffffffffffffffffffffff1673ffffffffffffffffffffffffffffffffffffffff16815260200190815260200160002054101561038757600080fd5b60006003838154811061039d5761039c611165565b5b906000526020600020906003020160020160006101000a81548160ff021916908360018111156103d0576103cf610f3a565b5b021790555033600383815481106103ea576103e9611165565b5b906000526020600020906003020160020160016101000a81548173ffffffffffffffffffffffffffffffffffffffff021916908373ffffffffffffffffffffffffffffffffffffffff1602179055505050565b6103e8600260003373ffffffffffffffffffffffffffffffffffffffff1673ffffffffffffffffffffffffffffffffffffffff1681526020019081526020016000205410156104c1576040517f08c379a00000000000000000000000000000000000000000000000000000000081526004016104b89061125d565b60405180910390fd5b6103e8600260003373ffffffffffffffffffffffffffffffffffffffff1673ffffffffffffffffffffffffffffffffffffffff168152602001908152602001600020600082825461051291906112ac565b925050819055506032600160003373ffffffffffffffffffffffffffffffffffffffff1673ffffffffffffffffffffffffffffffffffffffff168152602001908152602001600020600082825461056991906112e0565b92505081905550565b6000600160003373ffffffffffffffffffffffffffffffffffffffff1673ffffffffffffffffffffffffffffffffffffffff16815260200190815260200160002054905090565b6064600260003373ffffffffffffffffffffffffffffffffffffffff1673ffffffffffffffffffffffffffffffffffffffff16815260200190815260200160002054101561063c576040517f08c379a000000000000000000000000000000000000000000000000000000000815260040161063390611382565b60405180910390fd5b6064600260003373ffffffffffffffffffffffffffffffffffffffff1673ffffffffffffffffffffffffffffffffffffffff168152602001908152602001600020600082825461068c91906112ac565b925050819055506005600160003373ffffffffffffffffffffffffffffffffffffffff1673ffffffffffffffffffffffffffffffffffffffff16815260200190815260200160002060008282546106e391906112e0565b92505081905550565b6106f4610d7d565b73ffffffffffffffffffffffffffffffffffffffff16610712610855565b73ffffffffffffffffffffffffffffffffffffffff1614610768576040517f08c379a000000000000000000000000000000000000000000000000000000000815260040161075f906113ee565b60405180910390fd5b6107726000610d85565b565b61077c610e49565b600382815481106107905761078f611165565b5b906000526020600020906003020160405180608001604052908160008201548152602001600182015481526020016002820160009054906101000a900460ff1660018111156107e2576107e1610f3a565b5b60018111156107f4576107f3610f3a565b5b81526020016002820160019054906101000a900473ffffffffffffffffffffffffffffffffffffffff1673ffffffffffffffffffffffffffffffffffffffff1673ffffffffffffffffffffffffffffffffffffffff16815250509050919050565b60008060009054906101000a900473ffffffffffffffffffffffffffffffffffffffff16905090565b620f4240600260003373ffffffffffffffffffffffffffffffffffffffff1673ffffffffffffffffffffffffffffffffffffffff168152602001908152602001600020541015610903576040517f08c379a00000000000000000000000000000000000000000000000000000000081526004016108fa9061145a565b60405180910390fd5b620f4240600260003373ffffffffffffffffffffffffffffffffffffffff1673ffffffffffffffffffffffffffffffffffffffff168152602001908152602001600020600082825461095591906112ac565b92505081905550611388600160003373ffffffffffffffffffffffffffffffffffffffff1673ffffffffffffffffffffffffffffffffffffffff16815260200190815260200160002060008282546109ad91906112e0565b92505081905550565b6109be610d7d565b73ffffffffffffffffffffffffffffffffffffffff166109dc610855565b73ffffffffffffffffffffffffffffffffffffffff1614610a32576040517f08c379a0000000000000000000000000000000000000000000000000000000008152600401610a29906113ee565b60405180910390fd5b80600260008473ffffffffffffffffffffffffffffffffffffffff1673ffffffffffffffffffffffffffffffffffffffff168152602001908152602001600020819055505050565b6000600260003373ffffffffffffffffffffffffffffffffffffffff1673ffffffffffffffffffffffffffffffffffffffff16815260200190815260200160002054905090565b620186a0600260003373ffffffffffffffffffffffffffffffffffffffff1673ffffffffffffffffffffffffffffffffffffffff168152602001908152602001600020541015610b46576040517f08c379a0000000000000000000000000000000000000000000000000000000008152600401610b3d906114c6565b60405180910390fd5b620186a0600260003373ffffffffffffffffffffffffffffffffffffffff1673ffffffffffffffffffffffffffffffffffffffff1681526020019081526020016000206000828254610b9891906112ac565b925050819055506101f4600160003373ffffffffffffffffffffffffffffffffffffffff1673ffffffffffffffffffffffffffffffffffffffff1681526020019081526020016000206000828254610bf091906112e0565b92505081905550565b81600260003373ffffffffffffffffffffffffffffffffffffffff1673ffffffffffffffffffffffffffffffffffffffff1681526020019081526020016000208190555080600160003373ffffffffffffffffffffffffffffffffffffffff1673ffffffffffffffffffffffffffffffffffffffff168152602001908152602001600020819055505050565b610c8d610d7d565b73ffffffffffffffffffffffffffffffffffffffff16610cab610855565b73ffffffffffffffffffffffffffffffffffffffff1614610d01576040517f08c379a0000000000000000000000000000000000000000000000000000000008152600401610cf8906113ee565b60405180910390fd5b600073ffffffffffffffffffffffffffffffffffffffff168173ffffffffffffffffffffffffffffffffffffffff161415610d71576040517f08c379a0000000000000000000000000000000000000000000000000000000008152600401610d6890611558565b60405180910390fd5b610d7a81610d85565b50565b600033905090565b60008060009054906101000a900473ffffffffffffffffffffffffffffffffffffffff169050816000806101000a81548173ffffffffffffffffffffffffffffffffffffffff021916908373ffffffffffffffffffffffffffffffffffffffff1602179055508173ffffffffffffffffffffffffffffffffffffffff168173ffffffffffffffffffffffffffffffffffffffff167f8be0079c531659141344cd1fd0a4f28419497f9722a3daafe3b4186f6b6457e060405160405180910390a35050565b6040518060800160405280600081526020016000815260200160006001811115610e7657610e75610f3a565b5b8152602001600073ffffffffffffffffffffffffffffffffffffffff1681525090565b600080fd5b6000819050919050565b610eb181610e9e565b8114610ebc57600080fd5b50565b600081359050610ece81610ea8565b92915050565b600060208284031215610eea57610ee9610e99565b5b6000610ef884828501610ebf565b91505092915050565b610f0a81610e9e565b82525050565b6000602082019050610f256000830184610f01565b92915050565b610f3481610e9e565b82525050565b7f4e487b7100000000000000000000000000000000000000000000000000000000600052602160045260246000fd5b60028110610f7a57610f79610f3a565b5b50565b6000819050610f8b82610f69565b919050565b6000610f9b82610f7d565b9050919050565b610fab81610f90565b82525050565b600073ffffffffffffffffffffffffffffffffffffffff82169050919050565b6000610fdc82610fb1565b9050919050565b610fec81610fd1565b82525050565b6080820160008201516110086000850182610f2b565b50602082015161101b6020850182610f2b565b50604082015161102e6040850182610fa2565b5060608201516110416060850182610fe3565b50505050565b600060808201905061105c6000830184610ff2565b92915050565b61106b81610fd1565b82525050565b60006020820190506110866000830184611062565b92915050565b61109581610fd1565b81146110a057600080fd5b50565b6000813590506110b28161108c565b92915050565b600080604083850312156110cf576110ce610e99565b5b60006110dd858286016110a3565b92505060206110ee85828601610ebf565b9150509250929050565b6000806040838503121561110f5761110e610e99565b5b600061111d85828601610ebf565b925050602061112e85828601610ebf565b9150509250929050565b60006020828403121561114e5761114d610e99565b5b600061115c848285016110a3565b91505092915050565b7f4e487b7100000000000000000000000000000000000000000000000000000000600052603260045260246000fd5b600082825260208201905092915050565b7f4261646765206973206f776e6564000000000000000000000000000000000000600082015250565b60006111db600e83611194565b91506111e6826111a5565b602082019050919050565b6000602082019050818103600083015261120a816111ce565b9050919050565b7f42616c616e6365206973206c657373207468616e203130303000000000000000600082015250565b6000611247601983611194565b915061125282611211565b602082019050919050565b600060208201905081810360008301526112768161123a565b9050919050565b7f4e487b7100000000000000000000000000000000000000000000000000000000600052601160045260246000fd5b60006112b782610e9e565b91506112c283610e9e565b9250828210156112d5576112d461127d565b5b828203905092915050565b60006112eb82610e9e565b91506112f683610e9e565b9250827fffffffffffffffffffffffffffffffffffffffffffffffffffffffffffffffff0382111561132b5761132a61127d565b5b828201905092915050565b7f42616c616e6365206973206c657373207468616e203130300000000000000000600082015250565b600061136c601883611194565b915061137782611336565b602082019050919050565b6000602082019050818103600083015261139b8161135f565b9050919050565b7f4f776e61626c653a2063616c6c6572206973206e6f7420746865206f776e6572600082015250565b60006113d8602083611194565b91506113e3826113a2565b602082019050919050565b60006020820190508181036000830152611407816113cb565b9050919050565b7f42616c616e6365206973206c657373207468616e203130303030303000000000600082015250565b6000611444601c83611194565b915061144f8261140e565b602082019050919050565b6000602082019050818103600083015261147381611437565b9050919050565b7f42616c616e6365206973206c657373207468616e203130303030300000000000600082015250565b60006114b0601b83611194565b91506114bb8261147a565b602082019050919050565b600060208201905081810360008301526114df816114a3565b9050919050565b7f4f776e61626c653a206e6577206f776e657220697320746865207a65726f206160008201527f6464726573730000000000000000000000000000000000000000000000000000602082015250565b6000611542602683611194565b915061154d826114e6565b604082019050919050565b6000602082019050818103600083015261157181611535565b905091905056fea26469706673582212208e54a70a82d4c358f904ca62d68dec0b14785f984718db4953daf47c4c41842c64736f6c634300080a0033",
  "immutableReferences": {},
  "source": "// SPDX-License-Identifier: MIT\npragma solidity >=0.4.22 <0.9.0;\n\nimport \"@openzeppelin/contracts/access/Ownable.sol\";\n\n\ncontract TestContract is Ownable{\n  \n  \n  mapping(address => uint) private upgradeTotal;\n  mapping(address => uint) private zoodleBalances;\n\n  enum State{Owned, Unowned}\n\n  struct Badge {\n    uint id;\n    uint price;\n    State status;\n    address badgeOwner;\n  }\n\n  // mapping(uint => Badge) private badgeList;\n  Badge[] private badges;\n\n  constructor() {\n   badges.push(Badge({\n     id:0,\n     price:100,\n     status: State.Unowned,\n    badgeOwner: address(0)\n   }));\n\n   badges.push(Badge({\n     id:1,\n     price:10000,\n     status: State.Unowned,\n    badgeOwner: address(0)\n   }));\n\n   badges.push(Badge({\n     id:2,\n     price:1000000,\n     status: State.Unowned,\n    badgeOwner: address(0)\n   }));\n  }\n\n  modifier isUnowned(uint id){\n    require(badges[id].status == State.Unowned && badges[id].badgeOwner == address(0), \"Badge is owned\");\n    _;\n  }\n\n  function giftZoodle(address recipient, uint256 giftAmount) public onlyOwner{\n    zoodleBalances[recipient] = giftAmount;\n  }\n  \n  function getZoodle() public view returns(uint256){\n    return zoodleBalances[msg.sender];\n  }\n  function getBadge(uint256 id) public view returns(Badge memory){\n    return badges[id];\n  }\n\n  function getUpgrades() public view returns(uint256){\n    return upgradeTotal[msg.sender];\n  }\n\n  function saveProfile(uint256 zoodleAccrued, uint256 upgradesAccrued) public{\n    zoodleBalances[msg.sender] = zoodleAccrued;\n    upgradeTotal[msg.sender] = upgradesAccrued;\n  }\n\n  function purchaseItem1() public{\n    require(zoodleBalances[msg.sender] >= 100, \"Balance is less than 100\");\n    zoodleBalances[msg.sender] -= 100;\n    upgradeTotal[msg.sender] +=5;\n  }\n\n  function purchaseItem2() public{\n    require(zoodleBalances[msg.sender] >= 1000, \"Balance is less than 1000\");\n    zoodleBalances[msg.sender] -= 1000;\n    upgradeTotal[msg.sender] +=50;\n  }\n\n  function purchaseItem3() public{\n    require(zoodleBalances[msg.sender] >= 100000, \"Balance is less than 100000\");\n    zoodleBalances[msg.sender] -= 100000;\n    upgradeTotal[msg.sender] +=500;\n  }\n\n  function purchaseItem4() public{\n    require(zoodleBalances[msg.sender] >= 1000000, \"Balance is less than 1000000\");\n    zoodleBalances[msg.sender] -= 1000000;\n    upgradeTotal[msg.sender] +=5000;\n  }\n\n  function claimBadge(uint256 id) public isUnowned(id){\n    require(zoodleBalances[msg.sender] >= badges[id].price);\n    badges[id].status = State.Owned;\n    badges[id].badgeOwner = msg.sender;\n  }\n\n}\n",
  "sourcePath": "/Users/alexdalessandro/Desktop/solidity/blockchain-developer-bootcamp-final-project/contracts/TestContract.sol",
  "compiler": {
    "name": "solc",
    "version": "0.8.10+commit.fc410830.Emscripten.clang"
  },
  "schemaVersion": "3.4.3",
  "updatedAt": "2021-11-30T03:29:03.058Z",
  "networkType": "ethereum",
  "devdoc": {
    "kind": "dev",
    "methods": {
      "owner()": {
        "details": "Returns the address of the current owner."
      },
      "renounceOwnership()": {
        "details": "Leaves the contract without owner. It will not be possible to call `onlyOwner` functions anymore. Can only be called by the current owner. NOTE: Renouncing ownership will leave the contract without an owner, thereby removing any functionality that is only available to the owner."
      },
      "transferOwnership(address)": {
        "details": "Transfers ownership of the contract to a new account (`newOwner`). Can only be called by the current owner."
      }
    },
    "version": 1
  },
  "userdoc": {
    "kind": "user",
    "methods": {},
    "version": 1
  }
}