{
  "contractName": "TestContract",
  "abi": [
    {
      "inputs": [],
      "stateMutability": "nonpayable",
      "type": "constructor"
    },
    {
      "inputs": [],
      "name": "owner",
      "outputs": [
        {
          "internalType": "address",
          "name": "",
          "type": "address"
        }
      ],
      "stateMutability": "view",
      "type": "function",
      "constant": true
    },
    {
      "inputs": [],
      "name": "getZoodle",
      "outputs": [
        {
          "internalType": "uint256",
          "name": "",
          "type": "uint256"
        }
      ],
      "stateMutability": "view",
      "type": "function",
      "constant": true
    },
    {
      "inputs": [],
      "name": "getUpgrades",
      "outputs": [
        {
          "internalType": "uint256",
          "name": "",
          "type": "uint256"
        }
      ],
      "stateMutability": "view",
      "type": "function",
      "constant": true
    },
    {
      "inputs": [
        {
          "internalType": "uint256",
          "name": "zoodleAccrued",
          "type": "uint256"
        },
        {
          "internalType": "uint256",
          "name": "upgradesAccrued",
          "type": "uint256"
        }
      ],
      "name": "saveProfile",
      "outputs": [],
      "stateMutability": "nonpayable",
      "type": "function"
    },
    {
      "inputs": [],
      "name": "purchaseItem1",
      "outputs": [],
      "stateMutability": "nonpayable",
      "type": "function"
    },
    {
      "inputs": [],
      "name": "purchaseItem2",
      "outputs": [],
      "stateMutability": "nonpayable",
      "type": "function"
    },
    {
      "inputs": [],
      "name": "purchaseItem3",
      "outputs": [],
      "stateMutability": "nonpayable",
      "type": "function"
    },
    {
      "inputs": [],
      "name": "purchaseItem4",
      "outputs": [],
      "stateMutability": "nonpayable",
      "type": "function"
    }
  ],
  "bytecode": "0x608060405234801561001057600080fd5b50336000806101000a81548173ffffffffffffffffffffffffffffffffffffffff021916908373ffffffffffffffffffffffffffffffffffffffff160217905550610af2806100606000396000f3fe608060405234801561001057600080fd5b50600436106100885760003560e01c80639f43203a1161005b5780639f43203a146100dd578063bfad85e5146100e7578063c8d7cafd14610105578063f055cf761461010f57610088565b80634e7d18561461008d578063695bd00c1461009757806370fc63ae146100b55780638da5cb5b146100bf575b600080fd5b61009561012b565b005b61009f610260565b6040516100ac919061075a565b60405180910390f35b6100bd6102a7565b005b6100c76103da565b6040516100d491906107b6565b60405180910390f35b6100e56103fe565b005b6100ef610536565b6040516100fc919061075a565b60405180910390f35b61010d61057d565b005b61012960048036038101906101249190610802565b6106b5565b005b6103e8600260003373ffffffffffffffffffffffffffffffffffffffff1673ffffffffffffffffffffffffffffffffffffffff1681526020019081526020016000205410156101af576040517f08c379a00000000000000000000000000000000000000000000000000000000081526004016101a69061089f565b60405180910390fd5b6103e8600260003373ffffffffffffffffffffffffffffffffffffffff1673ffffffffffffffffffffffffffffffffffffffff168152602001908152602001600020600082825461020091906108ee565b925050819055506032600160003373ffffffffffffffffffffffffffffffffffffffff1673ffffffffffffffffffffffffffffffffffffffff16815260200190815260200160002060008282546102579190610922565b92505081905550565b6000600160003373ffffffffffffffffffffffffffffffffffffffff1673ffffffffffffffffffffffffffffffffffffffff16815260200190815260200160002054905090565b6064600260003373ffffffffffffffffffffffffffffffffffffffff1673ffffffffffffffffffffffffffffffffffffffff16815260200190815260200160002054101561032a576040517f08c379a0000000000000000000000000000000000000000000000000000000008152600401610321906109c4565b60405180910390fd5b6064600260003373ffffffffffffffffffffffffffffffffffffffff1673ffffffffffffffffffffffffffffffffffffffff168152602001908152602001600020600082825461037a91906108ee565b925050819055506005600160003373ffffffffffffffffffffffffffffffffffffffff1673ffffffffffffffffffffffffffffffffffffffff16815260200190815260200160002060008282546103d19190610922565b92505081905550565b60008054906101000a900473ffffffffffffffffffffffffffffffffffffffff1681565b620f4240600260003373ffffffffffffffffffffffffffffffffffffffff1673ffffffffffffffffffffffffffffffffffffffff168152602001908152602001600020541015610483576040517f08c379a000000000000000000000000000000000000000000000000000000000815260040161047a90610a30565b60405180910390fd5b620f4240600260003373ffffffffffffffffffffffffffffffffffffffff1673ffffffffffffffffffffffffffffffffffffffff16815260200190815260200160002060008282546104d591906108ee565b92505081905550611388600160003373ffffffffffffffffffffffffffffffffffffffff1673ffffffffffffffffffffffffffffffffffffffff168152602001908152602001600020600082825461052d9190610922565b92505081905550565b6000600260003373ffffffffffffffffffffffffffffffffffffffff1673ffffffffffffffffffffffffffffffffffffffff16815260200190815260200160002054905090565b620186a0600260003373ffffffffffffffffffffffffffffffffffffffff1673ffffffffffffffffffffffffffffffffffffffff168152602001908152602001600020541015610602576040517f08c379a00000000000000000000000000000000000000000000000000000000081526004016105f990610a9c565b60405180910390fd5b620186a0600260003373ffffffffffffffffffffffffffffffffffffffff1673ffffffffffffffffffffffffffffffffffffffff168152602001908152602001600020600082825461065491906108ee565b925050819055506101f4600160003373ffffffffffffffffffffffffffffffffffffffff1673ffffffffffffffffffffffffffffffffffffffff16815260200190815260200160002060008282546106ac9190610922565b92505081905550565b81600260003373ffffffffffffffffffffffffffffffffffffffff1673ffffffffffffffffffffffffffffffffffffffff1681526020019081526020016000208190555080600160003373ffffffffffffffffffffffffffffffffffffffff1673ffffffffffffffffffffffffffffffffffffffff168152602001908152602001600020819055505050565b6000819050919050565b61075481610741565b82525050565b600060208201905061076f600083018461074b565b92915050565b600073ffffffffffffffffffffffffffffffffffffffff82169050919050565b60006107a082610775565b9050919050565b6107b081610795565b82525050565b60006020820190506107cb60008301846107a7565b92915050565b600080fd5b6107df81610741565b81146107ea57600080fd5b50565b6000813590506107fc816107d6565b92915050565b60008060408385031215610819576108186107d1565b5b6000610827858286016107ed565b9250506020610838858286016107ed565b9150509250929050565b600082825260208201905092915050565b7f42616c616e6365206973206c657373207468616e203130303000000000000000600082015250565b6000610889601983610842565b915061089482610853565b602082019050919050565b600060208201905081810360008301526108b88161087c565b9050919050565b7f4e487b7100000000000000000000000000000000000000000000000000000000600052601160045260246000fd5b60006108f982610741565b915061090483610741565b925082821015610917576109166108bf565b5b828203905092915050565b600061092d82610741565b915061093883610741565b9250827fffffffffffffffffffffffffffffffffffffffffffffffffffffffffffffffff0382111561096d5761096c6108bf565b5b828201905092915050565b7f42616c616e6365206973206c657373207468616e203130300000000000000000600082015250565b60006109ae601883610842565b91506109b982610978565b602082019050919050565b600060208201905081810360008301526109dd816109a1565b9050919050565b7f42616c616e6365206973206c657373207468616e203130303030303000000000600082015250565b6000610a1a601c83610842565b9150610a25826109e4565b602082019050919050565b60006020820190508181036000830152610a4981610a0d565b9050919050565b7f42616c616e6365206973206c657373207468616e203130303030300000000000600082015250565b6000610a86601b83610842565b9150610a9182610a50565b602082019050919050565b60006020820190508181036000830152610ab581610a79565b905091905056fea2646970667358221220b39bdd92be9cc7aeffbc5a167444b7b69524bf6e26fcd359ee16169a52abe4bc64736f6c634300080a0033",
  "immutableReferences": {},
  "source": "// SPDX-License-Identifier: MIT\npragma solidity >=0.4.22 <0.9.0;\n\ncontract TestContract {\n  address public owner;\n  \n  mapping(address => uint) private upgradeTotal;\n  mapping(address => uint) private zoodleBalances;\n  \n\n  constructor() {\n    owner = msg.sender;\n  }\n\n  function getZoodle() public view returns(uint256){\n    return zoodleBalances[msg.sender];\n  }\n\n  function getUpgrades() public view returns(uint256){\n    return upgradeTotal[msg.sender];\n  }\n\n  function saveProfile(uint256 zoodleAccrued, uint256 upgradesAccrued) public{\n    zoodleBalances[msg.sender] = zoodleAccrued;\n    upgradeTotal[msg.sender] = upgradesAccrued;\n  }\n\n  function purchaseItem1() public{\n    require(zoodleBalances[msg.sender] >= 100, \"Balance is less than 100\");\n    zoodleBalances[msg.sender] -= 100;\n    upgradeTotal[msg.sender] +=5;\n  }\n\n  function purchaseItem2() public{\n    require(zoodleBalances[msg.sender] >= 1000, \"Balance is less than 1000\");\n    zoodleBalances[msg.sender] -= 1000;\n    upgradeTotal[msg.sender] +=50;\n  }\n\n  function purchaseItem3() public{\n    require(zoodleBalances[msg.sender] >= 100000, \"Balance is less than 100000\");\n    zoodleBalances[msg.sender] -= 100000;\n    upgradeTotal[msg.sender] +=500;\n  }\n\n  function purchaseItem4() public{\n    require(zoodleBalances[msg.sender] >= 1000000, \"Balance is less than 1000000\");\n    zoodleBalances[msg.sender] -= 1000000;\n    upgradeTotal[msg.sender] +=5000;\n  }\n\n}\n",
  "sourcePath": "/Users/alexdalessandro/Desktop/solidity/blockchain-developer-bootcamp-final-project/contracts/TestContract.sol",
  "compiler": {
    "name": "solc",
    "version": "0.8.10+commit.fc410830.Emscripten.clang"
  },
  "schemaVersion": "3.4.3",
  "updatedAt": "2021-11-28T18:19:42.378Z",
  "networkType": "ethereum",
  "devdoc": {
    "kind": "dev",
    "methods": {},
    "version": 1
  },
  "userdoc": {
    "kind": "user",
    "methods": {},
    "version": 1
  }
}